{
  "contractName": "Join",
  "abi": [
    {
      "constant": true,
      "inputs": [],
      "name": "memberCount",
      "outputs": [
        {
          "name": "",
          "type": "uint256"
        }
      ],
      "payable": false,
      "stateMutability": "view",
      "type": "function",
      "signature": "0x11aee380"
    },
    {
      "constant": true,
      "inputs": [
        {
          "name": "",
          "type": "uint256"
        }
      ],
      "name": "members",
      "outputs": [
        {
          "name": "id",
          "type": "uint256"
        },
        {
          "name": "information",
          "type": "string"
        },
        {
          "name": "registered",
          "type": "bool"
        }
      ],
      "payable": false,
      "stateMutability": "view",
      "type": "function",
      "signature": "0x5daf08ca"
    },
    {
      "inputs": [],
      "payable": false,
      "stateMutability": "nonpayable",
      "type": "constructor",
      "signature": "constructor"
    },
    {
      "constant": false,
      "inputs": [
        {
          "name": "_information",
          "type": "string"
        }
      ],
      "name": "addMember",
      "outputs": [],
      "payable": false,
      "stateMutability": "nonpayable",
      "type": "function",
      "signature": "0x918f9687"
    }
  ],
  "bytecode": "0x60806040526000805534801561001457600080fd5b506100626040805190810160405280600581526020017f702d782d37000000000000000000000000000000000000000000000000000000815250610067640100000000026401000000009004565b61019f565b600080815480929190600101919050555060606040519081016040528060005481526020018281526020016000151581525060016000805481526020019081526020016000206000820151816000015560208201518160010190805190602001906100d39291906100fa565b5060408201518160020160006101000a81548160ff02191690831515021790555090505050565b828054600181600116156101000203166002900490600052602060002090601f016020900481019282601f1061013b57805160ff1916838001178555610169565b82800160010185558215610169579182015b8281111561016857825182559160200191906001019061014d565b5b509050610176919061017a565b5090565b61019c91905b80821115610198576000816000905550600101610180565b5090565b90565b61044e806101ae6000396000f3fe608060405260043610610057576000357c0100000000000000000000000000000000000000000000000000000000900463ffffffff16806311aee3801461005c5780635daf08ca14610087578063918f96871461014d575b600080fd5b34801561006857600080fd5b50610071610215565b6040518082815260200191505060405180910390f35b34801561009357600080fd5b506100c0600480360360208110156100aa57600080fd5b810190808035906020019092919050505061021b565b604051808481526020018060200183151515158152602001828103825284818151815260200191508051906020019080838360005b838110156101105780820151818401526020810190506100f5565b50505050905090810190601f16801561013d5780820380516001836020036101000a031916815260200191505b5094505050505060405180910390f35b34801561015957600080fd5b506102136004803603602081101561017057600080fd5b810190808035906020019064010000000081111561018d57600080fd5b82018360208201111561019f57600080fd5b803590602001918460018302840111640100000000831117156101c157600080fd5b91908080601f016020809104026020016040519081016040528093929190818152602001838380828437600081840152601f19601f8201169050808301925050505050505091929192905050506102ea565b005b60005481565b6001602052806000526040600020600091509050806000015490806001018054600181600116156101000203166002900480601f0160208091040260200160405190810160405280929190818152602001828054600181600116156101000203166002900480156102cd5780601f106102a2576101008083540402835291602001916102cd565b820191906000526020600020905b8154815290600101906020018083116102b057829003601f168201915b5050505050908060020160009054906101000a900460ff16905083565b6000808154809291906001019190505550606060405190810160405280600054815260200182815260200160001515815250600160008054815260200190815260200160002060008201518160000155602082015181600101908051906020019061035692919061037d565b5060408201518160020160006101000a81548160ff02191690831515021790555090505050565b828054600181600116156101000203166002900490600052602060002090601f016020900481019282601f106103be57805160ff19168380011785556103ec565b828001600101855582156103ec579182015b828111156103eb5782518255916020019190600101906103d0565b5b5090506103f991906103fd565b5090565b61041f91905b8082111561041b576000816000905550600101610403565b5090565b9056fea165627a7a7230582073cfe90562edb820f27f00c88476692d5f52543a0bc531375eb606479aacd8210029",
  "source": "// SPDX-License-Identifier: MIT\npragma solidity >=0.5.0;\n\ncontract Join {\n    uint public memberCount = 0;\n\n    struct PX {\n        uint id;\n        string information;\n        bool registered;\n    }\n\n    mapping(uint => PX) public members;\n\n    constructor() public {\n        addMember(\"p-x-7\");\n    }\n\n    function addMember(string memory _information) public {\n        memberCount ++;\n        members[memberCount] = PX(memberCount, _information, false);\n    }\n}",
  "sourcePath": "/home/j4c3-s3c/Desktop/Cur0/Near MB HackerThon/Ethereum Dev/eth_test_dev/contracts/Join.sol",
  "compiler": {
    "name": "solc",
    "version": "0.5.0+commit.1d4f565a.Emscripten.clang"
  },
  "schemaVersion": "3.0.1",
  "updatedAt": "2022-01-25T15:23:39.331Z",
  "devdoc": {
    "methods": {}
  },
  "userdoc": {
    "methods": {}
  }
}